S00D0000526F626F742E7372656311
S113000071C000008EC000008CC000008AC00000D7
S113001088C0000086C0000084C0000082C00000C8
S113002080C000007EC000007CC000007AC00000D8
S113003078C0000076C0000074C0000072C00000E8
S113004070C000006EC000006CC000006AC00000F8
S113005068C0000066C0000064C0000062C0000008
S113006060C00000FCC000005CC000003EC1000095
S113007058C0000056C0000054C0000052C0000028
S113008050C000004EC000004CC000004AC0000038
S113009048C0000046C0000044C0000042C0000048
S11300A040C000003EC000003CC000003AC0000058
S11300B038C0000036C0000034C0000032C0000068
S11300C030C000002EC000002CC000002AC0000078
S11300D028C0000026C0000024C0000022C0000088
S11300E020C0000011241FBECFEFD1E2DEBFCDBF80
S11300F000E00CBF12E0A0E0B2E0ECE6F3E000E0C8
S11301000BBF02C007900D92A630B107D9F722E0C9
S1130110A6E0B2E001C01D92A534B207E1F702D017
S113012023C16ECFCF93DF93CDB7DEB76D970FB6F4
S1130130F894DEBF0FBECDBF1A821982CE01479656
S11301403ED0BE01695E7F4FCE01019613D086E09A
S1130150E0E0F2E0DE01589601900D928A95E1F715
S1130160BE01685E7F4FCE01479640D0CE01019616
S11301700DD0FCCFFC01718360830895BC016E5FD8
S11301807F4FFC018081918131C008950F931F93AB
S1130190CF93DF93FC0180819181009759F0EF01A7
S11301A08F010E5F1F4FB8013DD0882319F0B801AD
S11301B0CE01E4DFDF91CF911F910F9108957894E0
S11301C010923A021092C50087E68093C40088ED2D
S11301D08093C100E2ECF0E080818F7380838081A2
S11301E0877F808380818660808308958091C000AA
S11301F085FFFCCF44E150E089E092E0A6D0109264
S11302000802809109028093C6000895E1ECF0E0B1
S11302108081806880830895E1ECF0E080818F77AD
S113022080830895EF92FF920F931F93CF93C09111
S11302300602CC2369F07B018C01EEDF10920602EA
S113024044E150E06DE172E0C7017FD0C801DEDF18
S11302508C2FCF911F910F91FF90EF9008951F92D3
S11302600F920FB60F9211240BB60F922F933F9358
S11302704F935F936F937F938F939F93AF93BF93AA
S1130280EF93FF9380910702482F50E09091C600AE
S1130290FA01EF5CFD4F90839A3089F4FA01EF5C28
S11302A0FD4F10824F5F5F4F61E372E08DE192E09A
S11302B04CD01092070281E08093060203C08F5F46
S11302C080930702FF91EF91BF91AF919F918F911E
S11302D07F916F915F914F913F912F910F900BBE42
S11302E00F900FBE0F901F9018951F920F920FB68C
S11302F00F9211240BB60F928F93AF93BF93EF938A
S1130300FF93E0910802AE2FB0E0A75FBD4F8C9140
S1130310811106C0E0ECF0E080818064808309C034
S1130320EF5FE0930802F0E0E75FFD4F8081809388
S1130330C600FF91EF91BF91AF918F910F900BBECB
S11303400F900FBE0F901F901895FB01DC014150D8
S1130350504048F001900D920020C9F701C01D9251
S10F036041505040E0F70895F894FFCF9E
S109036C48656C6C6F0093
S9030000FC
