S00D0000526F626F742E7372656311
S113000071C000008EC000008CC000008AC00000D7
S113001088C0000086C0000084C0000082C00000C8
S113002080C000007EC000007CC000007AC00000D8
S113003078C0000076C0000074C0000072C00000E8
S113004070C000006EC000006CC000006AC00000F8
S113005068C0000066C0000064C0000062C0000008
S113006060C00000AFC000005CC00000DEC0000043
S113007058C0000056C0000054C0000052C0000028
S113008050C000004EC000004CC000004AC0000038
S113009048C0000046C0000044C0000042C0000048
S11300A040C000003EC000003CC000003AC0000058
S11300B038C0000036C0000034C0000032C0000068
S11300C030C000002EC000002CC000002AC0000078
S11300D028C0000026C0000024C0000022C0000088
S11300E020C0000011241FBECFEFD1E2DEBFCDBF80
S11300F000E00CBF12E0A0E0B2E0E8E9F2E000E0CA
S11301000BBF02C007900D92A630B107D9F722E0C9
S1130110A6E0B2E001C01D92AF31B207E1F702D010
S1130120B9C06ECFCF93DF93CDB7DEB727970FB6A5
S1130130F894DEBF0FBECDBFCE01019613D086E08A
S1130140E0E0F2E0DE01129601900D928A95E1F76B
S1130150BE016E5F7F4FCE0101961BD0CE0101968A
S113016027D0FCCF7894109214021092C50087E631
S11301708093C40088ED8093C100E2ECF0E08081BC
S11301808F7380838081877F808380818660808372
S113019008958091C00085FFFCCF70930A0260939C
S11301A0090210920802FB0180818093C600089521
S11301B020910602222329F06BE072E0EADF10921C
S11301C0060208951F920F920FB60F9211240BB6D8
S11301D00F922F933F938F939F93EF93FF9380916D
S11301E00702282F30E09091C600F901E55FFD4F2A
S11301F090839A3051F4F901E55FFD4F108210921B
S1130200070281E08093060203C08F5F8093070298
S1130210FF91EF919F918F913F912F910F900BBE82
S11302200F900FBE0F901F9018951F920F920FB64C
S11302300F9211240BB60F922F933F938F939F939A
S1130240EF93FF932091090230910A0280910802F2
S1130250F901E80FF11D9081911106C0E0ECF0E086
S113026080818064808309C08F5F80930802F901D4
S1130270E80FF11D80818093C600FF91EF919F915B
S11302808F913F912F910F900BBE0F900FBE0F9047
S10B02901F901895F894FFCFAC
S109029848656C6C6F0068
S9030000FC
